{
  "_format": "hh-sol-artifact-1",
  "contractName": "AucEngine",
  "sourceName": "contracts/AuctionEngine.sol",
  "abi": [
    {
      "inputs": [],
      "stateMutability": "nonpayable",
      "type": "constructor"
    },
    {
      "anonymous": false,
      "inputs": [
        {
          "indexed": false,
          "internalType": "uint256",
          "name": "index",
          "type": "uint256"
        },
        {
          "indexed": false,
          "internalType": "string",
          "name": "itemName",
          "type": "string"
        },
        {
          "indexed": false,
          "internalType": "uint256",
          "name": "startingPrice",
          "type": "uint256"
        },
        {
          "indexed": false,
          "internalType": "uint256",
          "name": "duration",
          "type": "uint256"
        }
      ],
      "name": "AuctionCreated",
      "type": "event"
    },
    {
      "anonymous": false,
      "inputs": [
        {
          "indexed": false,
          "internalType": "uint256",
          "name": "index",
          "type": "uint256"
        },
        {
          "indexed": false,
          "internalType": "uint256",
          "name": "finalPrice",
          "type": "uint256"
        },
        {
          "indexed": false,
          "internalType": "address",
          "name": "winner",
          "type": "address"
        }
      ],
      "name": "AuctionEnded",
      "type": "event"
    },
    {
      "inputs": [
        {
          "internalType": "uint256",
          "name": "",
          "type": "uint256"
        }
      ],
      "name": "auctions",
      "outputs": [
        {
          "internalType": "address payable",
          "name": "seller",
          "type": "address"
        },
        {
          "internalType": "uint256",
          "name": "startingPrice",
          "type": "uint256"
        },
        {
          "internalType": "uint256",
          "name": "finalPrice",
          "type": "uint256"
        },
        {
          "internalType": "uint256",
          "name": "startAt",
          "type": "uint256"
        },
        {
          "internalType": "uint256",
          "name": "endsAt",
          "type": "uint256"
        },
        {
          "internalType": "uint256",
          "name": "discountRate",
          "type": "uint256"
        },
        {
          "internalType": "string",
          "name": "item",
          "type": "string"
        },
        {
          "internalType": "bool",
          "name": "stopped",
          "type": "bool"
        }
      ],
      "stateMutability": "view",
      "type": "function"
    },
    {
      "inputs": [
        {
          "internalType": "uint256",
          "name": "index",
          "type": "uint256"
        }
      ],
      "name": "buy",
      "outputs": [],
      "stateMutability": "payable",
      "type": "function"
    },
    {
      "inputs": [
        {
          "internalType": "uint256",
          "name": "_startingPrice",
          "type": "uint256"
        },
        {
          "internalType": "uint256",
          "name": "_discountRate",
          "type": "uint256"
        },
        {
          "internalType": "string",
          "name": "_item",
          "type": "string"
        },
        {
          "internalType": "uint256",
          "name": "_duration",
          "type": "uint256"
        }
      ],
      "name": "createAuction",
      "outputs": [],
      "stateMutability": "nonpayable",
      "type": "function"
    },
    {
      "inputs": [
        {
          "internalType": "uint256",
          "name": "index",
          "type": "uint256"
        }
      ],
      "name": "getPriceFor",
      "outputs": [
        {
          "internalType": "uint256",
          "name": "",
          "type": "uint256"
        }
      ],
      "stateMutability": "view",
      "type": "function"
    },
    {
      "inputs": [],
      "name": "owner",
      "outputs": [
        {
          "internalType": "address",
          "name": "",
          "type": "address"
        }
      ],
      "stateMutability": "view",
      "type": "function"
    },
    {
      "inputs": [],
      "name": "withdraw",
      "outputs": [],
      "stateMutability": "nonpayable",
      "type": "function"
    }
  ],
  "bytecode": "0x6080604052348015600f57600080fd5b50336000806101000a81548173ffffffffffffffffffffffffffffffffffffffff021916908373ffffffffffffffffffffffffffffffffffffffff1602179055506114b78061005f6000396000f3fe6080604052600436106100555760003560e01c80633ccfd60b1461005a5780634534cd9c14610071578063571a26a0146100ae5780638da5cb5b146100f2578063d96a094a1461011d578063e9835d1514610139575b600080fd5b34801561006657600080fd5b5061006f610162565b005b34801561007d57600080fd5b506100986004803603810190610093919061094e565b6102a2565b6040516100a5919061098a565b60405180910390f35b3480156100ba57600080fd5b506100d560048036038101906100d0919061094e565b610370565b6040516100e9989796959493929190610a91565b60405180910390f35b3480156100fe57600080fd5b5061010761047d565b6040516101149190610b37565b60405180910390f35b6101376004803603810190610132919061094e565b6104a1565b005b34801561014557600080fd5b50610160600480360381019061015b9190610c87565b61070b565b005b60008054906101000a900473ffffffffffffffffffffffffffffffffffffffff1673ffffffffffffffffffffffffffffffffffffffff163373ffffffffffffffffffffffffffffffffffffffff16146101f0576040517f08c379a00000000000000000000000000000000000000000000000000000000081526004016101e790610d7c565b60405180910390fd5b600047905060008111610238576040517f08c379a000000000000000000000000000000000000000000000000000000000815260040161022f90610de8565b60405180910390fd5b60008054906101000a900473ffffffffffffffffffffffffffffffffffffffff1673ffffffffffffffffffffffffffffffffffffffff166108fc829081150290604051600060405180830381858888f1935050505015801561029e573d6000803e3d6000fd5b5050565b600080600183815481106102b9576102b8610e08565b5b906000526020600020906008020190508060070160009054906101000a900460ff161561031b576040517f08c379a000000000000000000000000000000000000000000000000000000000815260040161031290610e83565b60405180910390fd5b600081600301544261032d9190610ed2565b905060008183600501546103419190610f06565b905080836001015411610355576000610366565b8083600101546103659190610ed2565b5b9350505050919050565b6001818154811061038057600080fd5b90600052602060002090600802016000915090508060000160009054906101000a900473ffffffffffffffffffffffffffffffffffffffff16908060010154908060020154908060030154908060040154908060050154908060060180546103e790610f77565b80601f016020809104026020016040519081016040528092919081815260200182805461041390610f77565b80156104605780601f1061043557610100808354040283529160200191610460565b820191906000526020600020905b81548152906001019060200180831161044357829003601f168201915b5050505050908060070160009054906101000a900460ff16905088565b60008054906101000a900473ffffffffffffffffffffffffffffffffffffffff1681565b6000600182815481106104b7576104b6610e08565b5b906000526020600020906008020190508060070160009054906101000a900460ff1615610519576040517f08c379a000000000000000000000000000000000000000000000000000000000815260040161051090610e83565b60405180910390fd5b8060040154421061055f576040517f08c379a000000000000000000000000000000000000000000000000000000000815260040161055690610ff4565b60405180910390fd5b600061056a836102a2565b9050803410156105af576040517f08c379a00000000000000000000000000000000000000000000000000000000081526004016105a690611060565b60405180910390fd5b60018260070160006101000a81548160ff021916908315150217905550808260020181905550600081346105e39190610ed2565b90506000811115610636573373ffffffffffffffffffffffffffffffffffffffff166108fc829081150290604051600060405180830381858888f19350505050158015610634573d6000803e3d6000fd5b505b60006064600a846106479190610f06565b61065191906110af565b8361065c9190610ed2565b90508360000160009054906101000a900473ffffffffffffffffffffffffffffffffffffffff1673ffffffffffffffffffffffffffffffffffffffff166108fc829081150290604051600060405180830381858888f193505050501580156106c8573d6000803e3d6000fd5b507fbafc4bda865d4d1f8d5b16f883e996fde0fe71112fac81503876d353756944008584336040516106fc939291906110e0565b60405180910390a15050505050565b600080821461071a578161071f565b6202a3005b9050808461072d9190610f06565b85101561076f576040517f08c379a000000000000000000000000000000000000000000000000000000000815260040161076690611163565b60405180910390fd5b60006040518061010001604052803373ffffffffffffffffffffffffffffffffffffffff1681526020018781526020016000815260200142815260200183426107b89190611183565b8152602001868152602001858152602001600015158152509050600181908060018154018082558091505060019003906000526020600020906008020160009091909190915060008201518160000160006101000a81548173ffffffffffffffffffffffffffffffffffffffff021916908373ffffffffffffffffffffffffffffffffffffffff1602179055506020820151816001015560408201518160020155606082015181600301556080820151816004015560a0820151816005015560c082015181600601908161088c9190611363565b5060e08201518160070160006101000a81548160ff02191690831515021790555050507f5bf34ed94988e5dcdc7d1faaa54eb1d3b55f45d5f11457e235afb21a8ebbe73c600180805490506108e19190610ed2565b8588856040516108f49493929190611435565b60405180910390a1505050505050565b6000604051905090565b600080fd5b600080fd5b6000819050919050565b61092b81610918565b811461093657600080fd5b50565b60008135905061094881610922565b92915050565b6000602082840312156109645761096361090e565b5b600061097284828501610939565b91505092915050565b61098481610918565b82525050565b600060208201905061099f600083018461097b565b92915050565b600073ffffffffffffffffffffffffffffffffffffffff82169050919050565b60006109d0826109a5565b9050919050565b6109e0816109c5565b82525050565b600081519050919050565b600082825260208201905092915050565b60005b83811015610a20578082015181840152602081019050610a05565b60008484015250505050565b6000601f19601f8301169050919050565b6000610a48826109e6565b610a5281856109f1565b9350610a62818560208601610a02565b610a6b81610a2c565b840191505092915050565b60008115159050919050565b610a8b81610a76565b82525050565b600061010082019050610aa7600083018b6109d7565b610ab4602083018a61097b565b610ac1604083018961097b565b610ace606083018861097b565b610adb608083018761097b565b610ae860a083018661097b565b81810360c0830152610afa8185610a3d565b9050610b0960e0830184610a82565b9998505050505050505050565b6000610b21826109a5565b9050919050565b610b3181610b16565b82525050565b6000602082019050610b4c6000830184610b28565b92915050565b600080fd5b600080fd5b7f4e487b7100000000000000000000000000000000000000000000000000000000600052604160045260246000fd5b610b9482610a2c565b810181811067ffffffffffffffff82111715610bb357610bb2610b5c565b5b80604052505050565b6000610bc6610904565b9050610bd28282610b8b565b919050565b600067ffffffffffffffff821115610bf257610bf1610b5c565b5b610bfb82610a2c565b9050602081019050919050565b82818337600083830152505050565b6000610c2a610c2584610bd7565b610bbc565b905082815260208101848484011115610c4657610c45610b57565b5b610c51848285610c08565b509392505050565b600082601f830112610c6e57610c6d610b52565b5b8135610c7e848260208601610c17565b91505092915050565b60008060008060808587031215610ca157610ca061090e565b5b6000610caf87828801610939565b9450506020610cc087828801610939565b935050604085013567ffffffffffffffff811115610ce157610ce0610913565b5b610ced87828801610c59565b9250506060610cfe87828801610939565b91505092959194509250565b7f4f6e6c7920746865206f776e65722063616e20706572666f726d20746869732060008201527f616374696f6e0000000000000000000000000000000000000000000000000000602082015250565b6000610d666026836109f1565b9150610d7182610d0a565b604082019050919050565b60006020820190508181036000830152610d9581610d59565b9050919050565b7f4e6f2066756e647320746f207769746864726177000000000000000000000000600082015250565b6000610dd26014836109f1565b9150610ddd82610d9c565b602082019050919050565b60006020820190508181036000830152610e0181610dc5565b9050919050565b7f4e487b7100000000000000000000000000000000000000000000000000000000600052603260045260246000fd5b7f41756374696f6e20686173206265656e2073746f707065640000000000000000600082015250565b6000610e6d6018836109f1565b9150610e7882610e37565b602082019050919050565b60006020820190508181036000830152610e9c81610e60565b9050919050565b7f4e487b7100000000000000000000000000000000000000000000000000000000600052601160045260246000fd5b6000610edd82610918565b9150610ee883610918565b9250828203905081811115610f0057610eff610ea3565b5b92915050565b6000610f1182610918565b9150610f1c83610918565b9250828202610f2a81610918565b91508282048414831517610f4157610f40610ea3565b5b5092915050565b7f4e487b7100000000000000000000000000000000000000000000000000000000600052602260045260246000fd5b60006002820490506001821680610f8f57607f821691505b602082108103610fa257610fa1610f48565b5b50919050565b7f41756374696f6e2068617320656e646564000000000000000000000000000000600082015250565b6000610fde6011836109f1565b9150610fe982610fa8565b602082019050919050565b6000602082019050818103600083015261100d81610fd1565b9050919050565b7f496e73756666696369656e742066756e64730000000000000000000000000000600082015250565b600061104a6012836109f1565b915061105582611014565b602082019050919050565b600060208201905081810360008301526110798161103d565b9050919050565b7f4e487b7100000000000000000000000000000000000000000000000000000000600052601260045260246000fd5b60006110ba82610918565b91506110c583610918565b9250826110d5576110d4611080565b5b828204905092915050565b60006060820190506110f5600083018661097b565b611102602083018561097b565b61110f6040830184610b28565b949350505050565b7f5374617274696e6720707269636520746f6f206c6f7700000000000000000000600082015250565b600061114d6016836109f1565b915061115882611117565b602082019050919050565b6000602082019050818103600083015261117c81611140565b9050919050565b600061118e82610918565b915061119983610918565b92508282019050808211156111b1576111b0610ea3565b5b92915050565b60008190508160005260206000209050919050565b60006020601f8301049050919050565b600082821b905092915050565b6000600883026112197fffffffffffffffffffffffffffffffffffffffffffffffffffffffffffffffff826111dc565b61122386836111dc565b95508019841693508086168417925050509392505050565b6000819050919050565b600061126061125b61125684610918565b61123b565b610918565b9050919050565b6000819050919050565b61127a83611245565b61128e61128682611267565b8484546111e9565b825550505050565b600090565b6112a3611296565b6112ae818484611271565b505050565b5b818110156112d2576112c760008261129b565b6001810190506112b4565b5050565b601f821115611317576112e8816111b7565b6112f1846111cc565b81016020851015611300578190505b61131461130c856111cc565b8301826112b3565b50505b505050565b600082821c905092915050565b600061133a6000198460080261131c565b1980831691505092915050565b60006113538383611329565b9150826002028217905092915050565b61136c826109e6565b67ffffffffffffffff81111561138557611384610b5c565b5b61138f8254610f77565b61139a8282856112d6565b600060209050601f8311600181146113cd57600084156113bb578287015190505b6113c58582611347565b86555061142d565b601f1984166113db866111b7565b60005b82811015611403578489015182556001820191506020850194506020810190506113de565b86831015611420578489015161141c601f891682611329565b8355505b6001600288020188555050505b505050505050565b600060808201905061144a600083018761097b565b818103602083015261145c8186610a3d565b905061146b604083018561097b565b611478606083018461097b565b9594505050505056fea26469706673582212204cfcecd8c8b18528d1c426dadcc89394de3605ff4cecc055f2383e7989dfa76e64736f6c634300081c0033",
  "linkReferences": {},
  "deployedLinkReferences": {}
}